{
  "_format": "hh-sol-artifact-1",
  "contractName": "NftCollection",
  "sourceName": "contracts/NftCollection.sol",
  "abi": [
    {
      "inputs": [
        {
          "internalType": "string",
          "name": "name_",
          "type": "string"
        },
        {
          "internalType": "string",
          "name": "symbol_",
          "type": "string"
        },
        {
          "internalType": "uint256",
          "name": "maxSupply_",
          "type": "uint256"
        },
        {
          "internalType": "string",
          "name": "baseURI_",
          "type": "string"
        }
      ],
      "stateMutability": "nonpayable",
      "type": "constructor"
    },
    {
      "anonymous": false,
      "inputs": [
        {
          "indexed": true,
          "internalType": "address",
          "name": "previousAdmin",
          "type": "address"
        },
        {
          "indexed": true,
          "internalType": "address",
          "name": "newAdmin",
          "type": "address"
        }
      ],
      "name": "AdminTransferred",
      "type": "event"
    },
    {
      "anonymous": false,
      "inputs": [
        {
          "indexed": true,
          "internalType": "address",
          "name": "owner",
          "type": "address"
        },
        {
          "indexed": true,
          "internalType": "address",
          "name": "approved",
          "type": "address"
        },
        {
          "indexed": true,
          "internalType": "uint256",
          "name": "tokenId",
          "type": "uint256"
        }
      ],
      "name": "Approval",
      "type": "event"
    },
    {
      "anonymous": false,
      "inputs": [
        {
          "indexed": true,
          "internalType": "address",
          "name": "owner",
          "type": "address"
        },
        {
          "indexed": true,
          "internalType": "address",
          "name": "operator",
          "type": "address"
        },
        {
          "indexed": false,
          "internalType": "bool",
          "name": "approved",
          "type": "bool"
        }
      ],
      "name": "ApprovalForAll",
      "type": "event"
    },
    {
      "anonymous": false,
      "inputs": [
        {
          "indexed": true,
          "internalType": "address",
          "name": "account",
          "type": "address"
        }
      ],
      "name": "Paused",
      "type": "event"
    },
    {
      "anonymous": false,
      "inputs": [
        {
          "indexed": true,
          "internalType": "address",
          "name": "from",
          "type": "address"
        },
        {
          "indexed": true,
          "internalType": "address",
          "name": "to",
          "type": "address"
        },
        {
          "indexed": true,
          "internalType": "uint256",
          "name": "tokenId",
          "type": "uint256"
        }
      ],
      "name": "Transfer",
      "type": "event"
    },
    {
      "anonymous": false,
      "inputs": [
        {
          "indexed": true,
          "internalType": "address",
          "name": "account",
          "type": "address"
        }
      ],
      "name": "TransfersPaused",
      "type": "event"
    },
    {
      "anonymous": false,
      "inputs": [
        {
          "indexed": true,
          "internalType": "address",
          "name": "account",
          "type": "address"
        }
      ],
      "name": "TransfersUnpaused",
      "type": "event"
    },
    {
      "anonymous": false,
      "inputs": [
        {
          "indexed": true,
          "internalType": "address",
          "name": "account",
          "type": "address"
        }
      ],
      "name": "Unpaused",
      "type": "event"
    },
    {
      "inputs": [],
      "name": "admin",
      "outputs": [
        {
          "internalType": "address",
          "name": "",
          "type": "address"
        }
      ],
      "stateMutability": "view",
      "type": "function"
    },
    {
      "inputs": [
        {
          "internalType": "address",
          "name": "to",
          "type": "address"
        },
        {
          "internalType": "uint256",
          "name": "tokenId",
          "type": "uint256"
        }
      ],
      "name": "approve",
      "outputs": [],
      "stateMutability": "nonpayable",
      "type": "function"
    },
    {
      "inputs": [
        {
          "internalType": "address",
          "name": "owner",
          "type": "address"
        }
      ],
      "name": "balanceOf",
      "outputs": [
        {
          "internalType": "uint256",
          "name": "",
          "type": "uint256"
        }
      ],
      "stateMutability": "view",
      "type": "function"
    },
    {
      "inputs": [
        {
          "internalType": "uint256",
          "name": "tokenId",
          "type": "uint256"
        }
      ],
      "name": "burn",
      "outputs": [],
      "stateMutability": "nonpayable",
      "type": "function"
    },
    {
      "inputs": [
        {
          "internalType": "uint256",
          "name": "tokenId",
          "type": "uint256"
        }
      ],
      "name": "getApproved",
      "outputs": [
        {
          "internalType": "address",
          "name": "",
          "type": "address"
        }
      ],
      "stateMutability": "view",
      "type": "function"
    },
    {
      "inputs": [
        {
          "internalType": "address",
          "name": "owner",
          "type": "address"
        },
        {
          "internalType": "address",
          "name": "operator",
          "type": "address"
        }
      ],
      "name": "isApprovedForAll",
      "outputs": [
        {
          "internalType": "bool",
          "name": "",
          "type": "bool"
        }
      ],
      "stateMutability": "view",
      "type": "function"
    },
    {
      "inputs": [],
      "name": "maxSupply",
      "outputs": [
        {
          "internalType": "uint256",
          "name": "",
          "type": "uint256"
        }
      ],
      "stateMutability": "view",
      "type": "function"
    },
    {
      "inputs": [],
      "name": "mintPaused",
      "outputs": [
        {
          "internalType": "bool",
          "name": "",
          "type": "bool"
        }
      ],
      "stateMutability": "view",
      "type": "function"
    },
    {
      "inputs": [],
      "name": "name",
      "outputs": [
        {
          "internalType": "string",
          "name": "",
          "type": "string"
        }
      ],
      "stateMutability": "view",
      "type": "function"
    },
    {
      "inputs": [
        {
          "internalType": "uint256",
          "name": "tokenId",
          "type": "uint256"
        }
      ],
      "name": "ownerOf",
      "outputs": [
        {
          "internalType": "address",
          "name": "",
          "type": "address"
        }
      ],
      "stateMutability": "view",
      "type": "function"
    },
    {
      "inputs": [],
      "name": "pauseMinting",
      "outputs": [],
      "stateMutability": "nonpayable",
      "type": "function"
    },
    {
      "inputs": [],
      "name": "pauseTransfers",
      "outputs": [],
      "stateMutability": "nonpayable",
      "type": "function"
    },
    {
      "inputs": [
        {
          "internalType": "address",
          "name": "to",
          "type": "address"
        },
        {
          "internalType": "uint256",
          "name": "tokenId",
          "type": "uint256"
        }
      ],
      "name": "safeMint",
      "outputs": [],
      "stateMutability": "nonpayable",
      "type": "function"
    },
    {
      "inputs": [
        {
          "internalType": "address",
          "name": "from",
          "type": "address"
        },
        {
          "internalType": "address",
          "name": "to",
          "type": "address"
        },
        {
          "internalType": "uint256",
          "name": "tokenId",
          "type": "uint256"
        }
      ],
      "name": "safeTransferFrom",
      "outputs": [],
      "stateMutability": "nonpayable",
      "type": "function"
    },
    {
      "inputs": [
        {
          "internalType": "address",
          "name": "from",
          "type": "address"
        },
        {
          "internalType": "address",
          "name": "to",
          "type": "address"
        },
        {
          "internalType": "uint256",
          "name": "tokenId",
          "type": "uint256"
        },
        {
          "internalType": "bytes",
          "name": "data",
          "type": "bytes"
        }
      ],
      "name": "safeTransferFrom",
      "outputs": [],
      "stateMutability": "nonpayable",
      "type": "function"
    },
    {
      "inputs": [
        {
          "internalType": "address",
          "name": "operator",
          "type": "address"
        },
        {
          "internalType": "bool",
          "name": "approved",
          "type": "bool"
        }
      ],
      "name": "setApprovalForAll",
      "outputs": [],
      "stateMutability": "nonpayable",
      "type": "function"
    },
    {
      "inputs": [
        {
          "internalType": "string",
          "name": "newBaseURI",
          "type": "string"
        }
      ],
      "name": "setBaseURI",
      "outputs": [],
      "stateMutability": "nonpayable",
      "type": "function"
    },
    {
      "inputs": [
        {
          "internalType": "bytes4",
          "name": "interfaceId",
          "type": "bytes4"
        }
      ],
      "name": "supportsInterface",
      "outputs": [
        {
          "internalType": "bool",
          "name": "",
          "type": "bool"
        }
      ],
      "stateMutability": "pure",
      "type": "function"
    },
    {
      "inputs": [],
      "name": "symbol",
      "outputs": [
        {
          "internalType": "string",
          "name": "",
          "type": "string"
        }
      ],
      "stateMutability": "view",
      "type": "function"
    },
    {
      "inputs": [
        {
          "internalType": "uint256",
          "name": "tokenId",
          "type": "uint256"
        }
      ],
      "name": "tokenURI",
      "outputs": [
        {
          "internalType": "string",
          "name": "",
          "type": "string"
        }
      ],
      "stateMutability": "view",
      "type": "function"
    },
    {
      "inputs": [],
      "name": "totalSupply",
      "outputs": [
        {
          "internalType": "uint256",
          "name": "",
          "type": "uint256"
        }
      ],
      "stateMutability": "view",
      "type": "function"
    },
    {
      "inputs": [
        {
          "internalType": "address",
          "name": "newAdmin",
          "type": "address"
        }
      ],
      "name": "transferAdmin",
      "outputs": [],
      "stateMutability": "nonpayable",
      "type": "function"
    },
    {
      "inputs": [
        {
          "internalType": "address",
          "name": "from",
          "type": "address"
        },
        {
          "internalType": "address",
          "name": "to",
          "type": "address"
        },
        {
          "internalType": "uint256",
          "name": "tokenId",
          "type": "uint256"
        }
      ],
      "name": "transferFrom",
      "outputs": [],
      "stateMutability": "nonpayable",
      "type": "function"
    },
    {
      "inputs": [],
      "name": "transfersPaused",
      "outputs": [
        {
          "internalType": "bool",
          "name": "",
          "type": "bool"
        }
      ],
      "stateMutability": "view",
      "type": "function"
    },
    {
      "inputs": [],
      "name": "unpauseMinting",
      "outputs": [],
      "stateMutability": "nonpayable",
      "type": "function"
    },
    {
      "inputs": [],
      "name": "unpauseTransfers",
      "outputs": [],
      "stateMutability": "nonpayable",
      "type": "function"
    }
  ],
  "bytecode": "0x60a06040523480156200001157600080fd5b5060405162003f7738038062003f7783398181016040528101906200003791906200030a565b600082116200007d576040517f08c379a000000000000000000000000000000000000000000000000000000000815260040162000074906200043a565b60405180910390fd5b83600090816200008e91906200069d565b508260019081620000a091906200069d565b5081608081815250508060089081620000ba91906200069d565b5033600360006101000a81548173ffffffffffffffffffffffffffffffffffffffff021916908373ffffffffffffffffffffffffffffffffffffffff1602179055506000600360146101000a81548160ff0219169083151502179055506000600360156101000a81548160ff0219169083151502179055505050505062000784565b6000604051905090565b600080fd5b600080fd5b600080fd5b600080fd5b6000601f19601f8301169050919050565b7f4e487b7100000000000000000000000000000000000000000000000000000000600052604160045260246000fd5b620001a5826200015a565b810181811067ffffffffffffffff82111715620001c757620001c66200016b565b5b80604052505050565b6000620001dc6200013c565b9050620001ea82826200019a565b919050565b600067ffffffffffffffff8211156200020d576200020c6200016b565b5b62000218826200015a565b9050602081019050919050565b60005b838110156200024557808201518184015260208101905062000228565b60008484015250505050565b6000620002686200026284620001ef565b620001d0565b90508281526020810184848401111562000287576200028662000155565b5b6200029484828562000225565b509392505050565b600082601f830112620002b457620002b362000150565b5b8151620002c684826020860162000251565b91505092915050565b6000819050919050565b620002e481620002cf565b8114620002f057600080fd5b50565b6000815190506200030481620002d9565b92915050565b6000806000806080858703121562000327576200032662000146565b5b600085015167ffffffffffffffff8111156200034857620003476200014b565b5b62000356878288016200029c565b945050602085015167ffffffffffffffff8111156200037a57620003796200014b565b5b62000388878288016200029c565b93505060406200039b87828801620002f3565b925050606085015167ffffffffffffffff811115620003bf57620003be6200014b565b5b620003cd878288016200029c565b91505092959194509250565b600082825260208201905092915050565b7f6d6178537570706c793e30000000000000000000000000000000000000000000600082015250565b600062000422600b83620003d9565b91506200042f82620003ea565b602082019050919050565b60006020820190508181036000830152620004558162000413565b9050919050565b600081519050919050565b7f4e487b7100000000000000000000000000000000000000000000000000000000600052602260045260246000fd5b60006002820490506001821680620004af57607f821691505b602082108103620004c557620004c462000467565b5b50919050565b60008190508160005260206000209050919050565b60006020601f8301049050919050565b600082821b905092915050565b6000600883026200052f7fffffffffffffffffffffffffffffffffffffffffffffffffffffffffffffffff82620004f0565b6200053b8683620004f0565b95508019841693508086168417925050509392505050565b6000819050919050565b60006200057e620005786200057284620002cf565b62000553565b620002cf565b9050919050565b6000819050919050565b6200059a836200055d565b620005b2620005a98262000585565b848454620004fd565b825550505050565b600090565b620005c9620005ba565b620005d68184846200058f565b505050565b5b81811015620005fe57620005f2600082620005bf565b600181019050620005dc565b5050565b601f8211156200064d576200061781620004cb565b6200062284620004e0565b8101602085101562000632578190505b6200064a6200064185620004e0565b830182620005db565b50505b505050565b600082821c905092915050565b6000620006726000198460080262000652565b1980831691505092915050565b60006200068d83836200065f565b9150826002028217905092915050565b620006a8826200045c565b67ffffffffffffffff811115620006c457620006c36200016b565b5b620006d0825462000496565b620006dd82828562000602565b600060209050601f83116001811462000715576000841562000700578287015190505b6200070c85826200067f565b8655506200077c565b601f1984166200072586620004cb565b60005b828110156200074f5784890151825560018201915060208501945060208101905062000728565b868310156200076f57848901516200076b601f8916826200065f565b8355505b6001600288020188555050505b505050505050565b6080516137d0620007a76000396000818161143e015261195001526137d06000f3fe608060405234801561001057600080fd5b506004361061018e5760003560e01c806375829def116100de578063ae20032211610097578063d5abeb0111610071578063d5abeb0114610433578063da8fbf2a14610451578063e985e9c51461045b578063f851a4401461048b5761018e565b8063ae200322146103dd578063b88d4fde146103e7578063c87b56dd146104035761018e565b806375829def146103435780637e4831d31461035f5780638936a91f1461037d57806395d89b4114610387578063a1448194146103a5578063a22cb465146103c15761018e565b806342842e0e1161014b57806347af99571161012557806347af9957146102bd57806355f804b3146102c75780636352211e146102e357806370a08231146103135761018e565b806342842e0e1461026757806342966c68146102835780634563f30a1461029f5761018e565b806301ffc9a71461019357806306fdde03146101c3578063081812fc146101e1578063095ea7b31461021157806318160ddd1461022d57806323b872dd1461024b575b600080fd5b6101ad60048036038101906101a89190612407565b6104a9565b6040516101ba919061244f565b60405180910390f35b6101cb610598565b6040516101d891906124fa565b60405180910390f35b6101fb60048036038101906101f69190612552565b61062a565b60405161020891906125c0565b60405180910390f35b61022b60048036038101906102269190612607565b6106af565b005b6102356108db565b6040516102429190612656565b60405180910390f35b61026560048036038101906102609190612671565b6108e1565b005b610281600480360381019061027c9190612671565b610942565b005b61029d60048036038101906102989190612552565b6109bf565b005b6102a7610c33565b6040516102b4919061244f565b60405180910390f35b6102c5610c46565b005b6102e160048036038101906102dc9190612729565b610d36565b005b6102fd60048036038101906102f89190612552565b610ddc565b60405161030a91906125c0565b60405180910390f35b61032d60048036038101906103289190612776565b610e8d565b60405161033a9190612656565b60405180910390f35b61035d60048036038101906103589190612776565b610f44565b005b610367611103565b604051610374919061244f565b60405180910390f35b610385611116565b005b61038f611206565b60405161039c91906124fa565b60405180910390f35b6103bf60048036038101906103ba9190612607565b611298565b005b6103db60048036038101906103d691906127cf565b6115c3565b005b6103e561172e565b005b61040160048036038101906103fc9190612865565b61181e565b005b61041d60048036038101906104189190612552565b6118d2565b60405161042a91906124fa565b60405180910390f35b61043b61194e565b6040516104489190612656565b60405180910390f35b610459611972565b005b610475600480360381019061047091906128ed565b611a62565b604051610482919061244f565b60405180910390f35b610493611af6565b6040516104a091906125c0565b60405180910390f35b60006301ffc9a760e01b7bffffffffffffffffffffffffffffffffffffffffffffffffffffffff1916827bffffffffffffffffffffffffffffffffffffffffffffffffffffffff1916148061054257506380ac58cd60e01b7bffffffffffffffffffffffffffffffffffffffffffffffffffffffff1916827bffffffffffffffffffffffffffffffffffffffffffffffffffffffff1916145b806105915750635b5e139f60e01b7bffffffffffffffffffffffffffffffffffffffffffffffffffffffff1916827bffffffffffffffffffffffffffffffffffffffffffffffffffffffff1916145b9050919050565b6060600080546105a79061295c565b80601f01602080910402602001604051908101604052809291908181526020018280546105d39061295c565b80156106205780601f106105f557610100808354040283529160200191610620565b820191906000526020600020905b81548152906001019060200180831161060357829003601f168201915b5050505050905090565b600061063582611b1c565b610674576040517f08c379a000000000000000000000000000000000000000000000000000000000815260040161066b906129d9565b60405180910390fd5b6006600083815260200190815260200160002060009054906101000a900473ffffffffffffffffffffffffffffffffffffffff169050919050565b60006106ba82610ddc565b90508073ffffffffffffffffffffffffffffffffffffffff168373ffffffffffffffffffffffffffffffffffffffff160361072a576040517f08c379a000000000000000000000000000000000000000000000000000000000815260040161072190612a45565b60405180910390fd5b8073ffffffffffffffffffffffffffffffffffffffff163373ffffffffffffffffffffffffffffffffffffffff1614806107ea5750600760008273ffffffffffffffffffffffffffffffffffffffff1673ffffffffffffffffffffffffffffffffffffffff16815260200190815260200160002060003373ffffffffffffffffffffffffffffffffffffffff1673ffffffffffffffffffffffffffffffffffffffff16815260200190815260200160002060009054906101000a900460ff165b610829576040517f08c379a000000000000000000000000000000000000000000000000000000000815260040161082090612ab1565b60405180910390fd5b826006600084815260200190815260200160002060006101000a81548173ffffffffffffffffffffffffffffffffffffffff021916908373ffffffffffffffffffffffffffffffffffffffff160217905550818373ffffffffffffffffffffffffffffffffffffffff168273ffffffffffffffffffffffffffffffffffffffff167f8c5be1e5ebec7d5bd14f71427d1e84f3dd0314c0f7b2291e5b200ac8c7c3b92560405160405180910390a4505050565b60025481565b600360159054906101000a900460ff1615610931576040517f08c379a000000000000000000000000000000000000000000000000000000000815260040161092890612b1d565b60405180910390fd5b61093d83838333611b88565b505050565b600360159054906101000a900460ff1615610992576040517f08c379a000000000000000000000000000000000000000000000000000000000815260040161098990612b1d565b60405180910390fd5b61099e83838333611b88565b6109ba3384848460405180602001604052806000815250611f2e565b505050565b60006109ca82610ddc565b90506109d633836120dc565b610a15576040517f08c379a0000000000000000000000000000000000000000000000000000000008152600401610a0c90612b89565b60405180910390fd5b600073ffffffffffffffffffffffffffffffffffffffff166006600084815260200190815260200160002060009054906101000a900473ffffffffffffffffffffffffffffffffffffffff1673ffffffffffffffffffffffffffffffffffffffff1614610b2c5760006006600084815260200190815260200160002060006101000a81548173ffffffffffffffffffffffffffffffffffffffff021916908373ffffffffffffffffffffffffffffffffffffffff16021790555081600073ffffffffffffffffffffffffffffffffffffffff168273ffffffffffffffffffffffffffffffffffffffff167f8c5be1e5ebec7d5bd14f71427d1e84f3dd0314c0f7b2291e5b200ac8c7c3b92560405160405180910390a45b6001600560008373ffffffffffffffffffffffffffffffffffffffff1673ffffffffffffffffffffffffffffffffffffffff1681526020019081526020016000206000828254610b7c9190612bd8565b925050819055506004600083815260200190815260200160002060006101000a81549073ffffffffffffffffffffffffffffffffffffffff0219169055600160026000828254610bcc9190612bd8565b9250508190555081600073ffffffffffffffffffffffffffffffffffffffff168273ffffffffffffffffffffffffffffffffffffffff167fddf252ad1be2c89b69c2b068fc378daa952ba7f163c4a11628f55a4df523b3ef60405160405180910390a45050565b600360159054906101000a900460ff1681565b600360009054906101000a900473ffffffffffffffffffffffffffffffffffffffff1673ffffffffffffffffffffffffffffffffffffffff163373ffffffffffffffffffffffffffffffffffffffff1614610cd6576040517f08c379a0000000000000000000000000000000000000000000000000000000008152600401610ccd90612c58565b60405180910390fd5b6001600360156101000a81548160ff0219169083151502179055503373ffffffffffffffffffffffffffffffffffffffff167f90e3871c52abc043fec5ae1907b964e53a1fc2c710d8c2a59b08ece8c04ec2b060405160405180910390a2565b600360009054906101000a900473ffffffffffffffffffffffffffffffffffffffff1673ffffffffffffffffffffffffffffffffffffffff163373ffffffffffffffffffffffffffffffffffffffff1614610dc6576040517f08c379a0000000000000000000000000000000000000000000000000000000008152600401610dbd90612c58565b60405180910390fd5b818160089182610dd7929190612e5e565b505050565b6000806004600084815260200190815260200160002060009054906101000a900473ffffffffffffffffffffffffffffffffffffffff169050600073ffffffffffffffffffffffffffffffffffffffff168173ffffffffffffffffffffffffffffffffffffffff1603610e84576040517f08c379a0000000000000000000000000000000000000000000000000000000008152600401610e7b906129d9565b60405180910390fd5b80915050919050565b60008073ffffffffffffffffffffffffffffffffffffffff168273ffffffffffffffffffffffffffffffffffffffff1603610efd576040517f08c379a0000000000000000000000000000000000000000000000000000000008152600401610ef490612f7a565b60405180910390fd5b600560008373ffffffffffffffffffffffffffffffffffffffff1673ffffffffffffffffffffffffffffffffffffffff168152602001908152602001600020549050919050565b600360009054906101000a900473ffffffffffffffffffffffffffffffffffffffff1673ffffffffffffffffffffffffffffffffffffffff163373ffffffffffffffffffffffffffffffffffffffff1614610fd4576040517f08c379a0000000000000000000000000000000000000000000000000000000008152600401610fcb90612c58565b60405180910390fd5b600073ffffffffffffffffffffffffffffffffffffffff168173ffffffffffffffffffffffffffffffffffffffff1603611043576040517f08c379a000000000000000000000000000000000000000000000000000000000815260040161103a90612fe6565b60405180910390fd5b8073ffffffffffffffffffffffffffffffffffffffff16600360009054906101000a900473ffffffffffffffffffffffffffffffffffffffff1673ffffffffffffffffffffffffffffffffffffffff167ff8ccb027dfcd135e000e9d45e6cc2d662578a8825d4c45b5e32e0adf67e79ec660405160405180910390a380600360006101000a81548173ffffffffffffffffffffffffffffffffffffffff021916908373ffffffffffffffffffffffffffffffffffffffff16021790555050565b600360149054906101000a900460ff1681565b600360009054906101000a900473ffffffffffffffffffffffffffffffffffffffff1673ffffffffffffffffffffffffffffffffffffffff163373ffffffffffffffffffffffffffffffffffffffff16146111a6576040517f08c379a000000000000000000000000000000000000000000000000000000000815260040161119d90612c58565b60405180910390fd5b6000600360156101000a81548160ff0219169083151502179055503373ffffffffffffffffffffffffffffffffffffffff167fb4a45dbb35c85696a2c906b58d65a78f885ac674f7cb926ea731688e92ce00cb60405160405180910390a2565b6060600180546112159061295c565b80601f01602080910402602001604051908101604052809291908181526020018280546112419061295c565b801561128e5780601f106112635761010080835404028352916020019161128e565b820191906000526020600020905b81548152906001019060200180831161127157829003601f168201915b5050505050905090565b600360009054906101000a900473ffffffffffffffffffffffffffffffffffffffff1673ffffffffffffffffffffffffffffffffffffffff163373ffffffffffffffffffffffffffffffffffffffff1614611328576040517f08c379a000000000000000000000000000000000000000000000000000000000815260040161131f90612c58565b60405180910390fd5b600360149054906101000a900460ff1615611378576040517f08c379a000000000000000000000000000000000000000000000000000000000815260040161136f90613052565b60405180910390fd5b600073ffffffffffffffffffffffffffffffffffffffff168273ffffffffffffffffffffffffffffffffffffffff16036113e7576040517f08c379a00000000000000000000000000000000000000000000000000000000081526004016113de906130be565b60405180910390fd5b6113f081611b1c565b15611430576040517f08c379a00000000000000000000000000000000000000000000000000000000081526004016114279061312a565b60405180910390fd5b6001811015801561146157507f00000000000000000000000000000000000000000000000000000000000000008111155b6114a0576040517f08c379a000000000000000000000000000000000000000000000000000000000815260040161149790613196565b60405180910390fd5b6001600260008282546114b391906131b6565b92505081905550816004600083815260200190815260200160002060006101000a81548173ffffffffffffffffffffffffffffffffffffffff021916908373ffffffffffffffffffffffffffffffffffffffff1602179055506001600560008473ffffffffffffffffffffffffffffffffffffffff1673ffffffffffffffffffffffffffffffffffffffff168152602001908152602001600020600082825461155c91906131b6565b92505081905550808273ffffffffffffffffffffffffffffffffffffffff16600073ffffffffffffffffffffffffffffffffffffffff167fddf252ad1be2c89b69c2b068fc378daa952ba7f163c4a11628f55a4df523b3ef60405160405180910390a45050565b3373ffffffffffffffffffffffffffffffffffffffff168273ffffffffffffffffffffffffffffffffffffffff1603611631576040517f08c379a000000000000000000000000000000000000000000000000000000000815260040161162890613236565b60405180910390fd5b80600760003373ffffffffffffffffffffffffffffffffffffffff1673ffffffffffffffffffffffffffffffffffffffff16815260200190815260200160002060008473ffffffffffffffffffffffffffffffffffffffff1673ffffffffffffffffffffffffffffffffffffffff16815260200190815260200160002060006101000a81548160ff0219169083151502179055508173ffffffffffffffffffffffffffffffffffffffff163373ffffffffffffffffffffffffffffffffffffffff167f17307eab39ab6107e8899845ad3d59bd9653f200f220920489ca2b5937696c3183604051611722919061244f565b60405180910390a35050565b600360009054906101000a900473ffffffffffffffffffffffffffffffffffffffff1673ffffffffffffffffffffffffffffffffffffffff163373ffffffffffffffffffffffffffffffffffffffff16146117be576040517f08c379a00000000000000000000000000000000000000000000000000000000081526004016117b590612c58565b60405180910390fd5b6000600360146101000a81548160ff0219169083151502179055503373ffffffffffffffffffffffffffffffffffffffff167f5db9ee0a495bf2e6ff9c91a7834c1ba4fdd244a5e8aa4e537bd38aeae4b073aa60405160405180910390a2565b600360159054906101000a900460ff161561186e576040517f08c379a000000000000000000000000000000000000000000000000000000000815260040161186590612b1d565b60405180910390fd5b61187a85858533611b88565b6118cb3386868686868080601f016020809104026020016040519081016040528093929190818152602001838380828437600081840152601f19601f82011690508083019250505050505050611f2e565b5050505050565b60606118dd82611b1c565b61191c576040517f08c379a0000000000000000000000000000000000000000000000000000000008152600401611913906129d9565b60405180910390fd5b600861192783612247565b604051602001611938929190613315565b6040516020818303038152906040529050919050565b7f000000000000000000000000000000000000000000000000000000000000000081565b600360009054906101000a900473ffffffffffffffffffffffffffffffffffffffff1673ffffffffffffffffffffffffffffffffffffffff163373ffffffffffffffffffffffffffffffffffffffff1614611a02576040517f08c379a00000000000000000000000000000000000000000000000000000000081526004016119f990612c58565b60405180910390fd5b6001600360146101000a81548160ff0219169083151502179055503373ffffffffffffffffffffffffffffffffffffffff167f62e78cea01bee320cd4e420270b5ea74000d11b0c9f74754ebdbfc544b05a25860405160405180910390a2565b6000600760008473ffffffffffffffffffffffffffffffffffffffff1673ffffffffffffffffffffffffffffffffffffffff16815260200190815260200160002060008373ffffffffffffffffffffffffffffffffffffffff1673ffffffffffffffffffffffffffffffffffffffff16815260200190815260200160002060009054906101000a900460ff16905092915050565b600360009054906101000a900473ffffffffffffffffffffffffffffffffffffffff1681565b60008073ffffffffffffffffffffffffffffffffffffffff166004600084815260200190815260200160002060009054906101000a900473ffffffffffffffffffffffffffffffffffffffff1673ffffffffffffffffffffffffffffffffffffffff1614159050919050565b8373ffffffffffffffffffffffffffffffffffffffff16611ba883610ddc565b73ffffffffffffffffffffffffffffffffffffffff1614611bfe576040517f08c379a0000000000000000000000000000000000000000000000000000000008152600401611bf590613385565b60405180910390fd5b600073ffffffffffffffffffffffffffffffffffffffff168373ffffffffffffffffffffffffffffffffffffffff1603611c6d576040517f08c379a0000000000000000000000000000000000000000000000000000000008152600401611c64906133f1565b60405180910390fd5b611c7781836120dc565b611cb6576040517f08c379a0000000000000000000000000000000000000000000000000000000008152600401611cad9061345d565b60405180910390fd5b600073ffffffffffffffffffffffffffffffffffffffff166006600084815260200190815260200160002060009054906101000a900473ffffffffffffffffffffffffffffffffffffffff1673ffffffffffffffffffffffffffffffffffffffff1614611dcd5760006006600084815260200190815260200160002060006101000a81548173ffffffffffffffffffffffffffffffffffffffff021916908373ffffffffffffffffffffffffffffffffffffffff16021790555081600073ffffffffffffffffffffffffffffffffffffffff168573ffffffffffffffffffffffffffffffffffffffff167f8c5be1e5ebec7d5bd14f71427d1e84f3dd0314c0f7b2291e5b200ac8c7c3b92560405160405180910390a45b6001600560008673ffffffffffffffffffffffffffffffffffffffff1673ffffffffffffffffffffffffffffffffffffffff1681526020019081526020016000206000828254611e1d9190612bd8565b925050819055506001600560008573ffffffffffffffffffffffffffffffffffffffff1673ffffffffffffffffffffffffffffffffffffffff1681526020019081526020016000206000828254611e7491906131b6565b92505081905550826004600084815260200190815260200160002060006101000a81548173ffffffffffffffffffffffffffffffffffffffff021916908373ffffffffffffffffffffffffffffffffffffffff160217905550818373ffffffffffffffffffffffffffffffffffffffff168573ffffffffffffffffffffffffffffffffffffffff167fddf252ad1be2c89b69c2b068fc378daa952ba7f163c4a11628f55a4df523b3ef60405160405180910390a450505050565b6000833b905060008103611f4257506120d5565b6000808573ffffffffffffffffffffffffffffffffffffffff1663150b7a0260e01b89898888604051602401611f7b94939291906134d2565b604051602081830303815290604052907bffffffffffffffffffffffffffffffffffffffffffffffffffffffff19166020820180517bffffffffffffffffffffffffffffffffffffffffffffffffffffffff8381831617835250505050604051611fe5919061355a565b600060405180830381855afa9150503d8060008114612020576040519150601f19603f3d011682016040523d82523d6000602084013e612025565b606091505b509150915081801561203957506004815110155b8015612092575063150b7a0260e01b7bffffffffffffffffffffffffffffffffffffffffffffffffffffffff19168161207190613596565b7bffffffffffffffffffffffffffffffffffffffffffffffffffffffff1916145b6120d1576040517f08c379a00000000000000000000000000000000000000000000000000000000081526004016120c890613649565b60405180910390fd5b5050505b5050505050565b6000806004600084815260200190815260200160002060009054906101000a900473ffffffffffffffffffffffffffffffffffffffff1690508073ffffffffffffffffffffffffffffffffffffffff168473ffffffffffffffffffffffffffffffffffffffff1614806121ad57508373ffffffffffffffffffffffffffffffffffffffff166006600085815260200190815260200160002060009054906101000a900473ffffffffffffffffffffffffffffffffffffffff1673ffffffffffffffffffffffffffffffffffffffff16145b8061223e5750600760008273ffffffffffffffffffffffffffffffffffffffff1673ffffffffffffffffffffffffffffffffffffffff16815260200190815260200160002060008573ffffffffffffffffffffffffffffffffffffffff1673ffffffffffffffffffffffffffffffffffffffff16815260200190815260200160002060009054906101000a900460ff165b91505092915050565b60606000820361228e576040518060400160405280600181526020017f300000000000000000000000000000000000000000000000000000000000000081525090506123a0565b6000808390505b600081146122bf5781806122a890613669565b925050600a816122b891906136e0565b9050612295565b60008267ffffffffffffffff8111156122db576122da612c83565b5b6040519080825280601f01601f19166020018201604052801561230d5781602001600182028036833780820191505090505b5090505b6000851461239957828061232490613711565b935050600a85612334919061373a565b603061234091906131b6565b60f81b8184815181106123565761235561376b565b5b60200101907effffffffffffffffffffffffffffffffffffffffffffffffffffffffffffff1916908160001a905350600a8561239291906136e0565b9450612311565b8093505050505b919050565b600080fd5b600080fd5b60007fffffffff0000000000000000000000000000000000000000000000000000000082169050919050565b6123e4816123af565b81146123ef57600080fd5b50565b600081359050612401816123db565b92915050565b60006020828403121561241d5761241c6123a5565b5b600061242b848285016123f2565b91505092915050565b60008115159050919050565b61244981612434565b82525050565b60006020820190506124646000830184612440565b92915050565b600081519050919050565b600082825260208201905092915050565b60005b838110156124a4578082015181840152602081019050612489565b60008484015250505050565b6000601f19601f8301169050919050565b60006124cc8261246a565b6124d68185612475565b93506124e6818560208601612486565b6124ef816124b0565b840191505092915050565b6000602082019050818103600083015261251481846124c1565b905092915050565b6000819050919050565b61252f8161251c565b811461253a57600080fd5b50565b60008135905061254c81612526565b92915050565b600060208284031215612568576125676123a5565b5b60006125768482850161253d565b91505092915050565b600073ffffffffffffffffffffffffffffffffffffffff82169050919050565b60006125aa8261257f565b9050919050565b6125ba8161259f565b82525050565b60006020820190506125d560008301846125b1565b92915050565b6125e48161259f565b81146125ef57600080fd5b50565b600081359050612601816125db565b92915050565b6000806040838503121561261e5761261d6123a5565b5b600061262c858286016125f2565b925050602061263d8582860161253d565b9150509250929050565b6126508161251c565b82525050565b600060208201905061266b6000830184612647565b92915050565b60008060006060848603121561268a576126896123a5565b5b6000612698868287016125f2565b93505060206126a9868287016125f2565b92505060406126ba8682870161253d565b9150509250925092565b600080fd5b600080fd5b600080fd5b60008083601f8401126126e9576126e86126c4565b5b8235905067ffffffffffffffff811115612706576127056126c9565b5b602083019150836001820283011115612722576127216126ce565b5b9250929050565b600080602083850312156127405761273f6123a5565b5b600083013567ffffffffffffffff81111561275e5761275d6123aa565b5b61276a858286016126d3565b92509250509250929050565b60006020828403121561278c5761278b6123a5565b5b600061279a848285016125f2565b91505092915050565b6127ac81612434565b81146127b757600080fd5b50565b6000813590506127c9816127a3565b92915050565b600080604083850312156127e6576127e56123a5565b5b60006127f4858286016125f2565b9250506020612805858286016127ba565b9150509250929050565b60008083601f840112612825576128246126c4565b5b8235905067ffffffffffffffff811115612842576128416126c9565b5b60208301915083600182028301111561285e5761285d6126ce565b5b9250929050565b600080600080600060808688031215612881576128806123a5565b5b600061288f888289016125f2565b95505060206128a0888289016125f2565b94505060406128b18882890161253d565b935050606086013567ffffffffffffffff8111156128d2576128d16123aa565b5b6128de8882890161280f565b92509250509295509295909350565b60008060408385031215612904576129036123a5565b5b6000612912858286016125f2565b9250506020612923858286016125f2565b9150509250929050565b7f4e487b7100000000000000000000000000000000000000000000000000000000600052602260045260246000fd5b6000600282049050600182168061297457607f821691505b6020821081036129875761298661292d565b5b50919050565b7f4e6f6e6578697374656e7420746f6b656e000000000000000000000000000000600082015250565b60006129c3601183612475565b91506129ce8261298d565b602082019050919050565b600060208201905081810360008301526129f2816129b6565b9050919050565b7f417070726f766520746f206f776e657200000000000000000000000000000000600082015250565b6000612a2f601083612475565b9150612a3a826129f9565b602082019050919050565b60006020820190508181036000830152612a5e81612a22565b9050919050565b7f4e6f74206f776e6572206e6f72206f70657261746f7200000000000000000000600082015250565b6000612a9b601683612475565b9150612aa682612a65565b602082019050919050565b60006020820190508181036000830152612aca81612a8e565b9050919050565b7f5472616e73666572732070617573656400000000000000000000000000000000600082015250565b6000612b07601083612475565b9150612b1282612ad1565b602082019050919050565b60006020820190508181036000830152612b3681612afa565b9050919050565b7f4e6f74206f776e6572206e6f7220617070726f76656400000000000000000000600082015250565b6000612b73601683612475565b9150612b7e82612b3d565b602082019050919050565b60006020820190508181036000830152612ba281612b66565b9050919050565b7f4e487b7100000000000000000000000000000000000000000000000000000000600052601160045260246000fd5b6000612be38261251c565b9150612bee8361251c565b9250828203905081811115612c0657612c05612ba9565b5b92915050565b7f4f6e6c792061646d696e00000000000000000000000000000000000000000000600082015250565b6000612c42600a83612475565b9150612c4d82612c0c565b602082019050919050565b60006020820190508181036000830152612c7181612c35565b9050919050565b600082905092915050565b7f4e487b7100000000000000000000000000000000000000000000000000000000600052604160045260246000fd5b60008190508160005260206000209050919050565b60006020601f8301049050919050565b600082821b905092915050565b600060088302612d147fffffffffffffffffffffffffffffffffffffffffffffffffffffffffffffffff82612cd7565b612d1e8683612cd7565b95508019841693508086168417925050509392505050565b6000819050919050565b6000612d5b612d56612d518461251c565b612d36565b61251c565b9050919050565b6000819050919050565b612d7583612d40565b612d89612d8182612d62565b848454612ce4565b825550505050565b600090565b612d9e612d91565b612da9818484612d6c565b505050565b5b81811015612dcd57612dc2600082612d96565b600181019050612daf565b5050565b601f821115612e1257612de381612cb2565b612dec84612cc7565b81016020851015612dfb578190505b612e0f612e0785612cc7565b830182612dae565b50505b505050565b600082821c905092915050565b6000612e3560001984600802612e17565b1980831691505092915050565b6000612e4e8383612e24565b9150826002028217905092915050565b612e688383612c78565b67ffffffffffffffff811115612e8157612e80612c83565b5b612e8b825461295c565b612e96828285612dd1565b6000601f831160018114612ec55760008415612eb3578287013590505b612ebd8582612e42565b865550612f25565b601f198416612ed386612cb2565b60005b82811015612efb57848901358255600182019150602085019450602081019050612ed6565b86831015612f185784890135612f14601f891682612e24565b8355505b6001600288020188555050505b50505050505050565b7f5a65726f20616464726573730000000000000000000000000000000000000000600082015250565b6000612f64600c83612475565b9150612f6f82612f2e565b602082019050919050565b60006020820190508181036000830152612f9381612f57565b9050919050565b7f6e65772061646d696e207a65726f000000000000000000000000000000000000600082015250565b6000612fd0600e83612475565b9150612fdb82612f9a565b602082019050919050565b60006020820190508181036000830152612fff81612fc3565b9050919050565b7f4d696e74696e6720706175736564000000000000000000000000000000000000600082015250565b600061303c600e83612475565b915061304782613006565b602082019050919050565b6000602082019050818103600083015261306b8161302f565b9050919050565b7f4d696e7420746f207a65726f0000000000000000000000000000000000000000600082015250565b60006130a8600c83612475565b91506130b382613072565b602082019050919050565b600060208201905081810360008301526130d78161309b565b9050919050565b7f416c7265616479206d696e746564000000000000000000000000000000000000600082015250565b6000613114600e83612475565b915061311f826130de565b602082019050919050565b6000602082019050818103600083015261314381613107565b9050919050565b7f746f6b656e4964206f7574206f662072616e6765000000000000000000000000600082015250565b6000613180601483612475565b915061318b8261314a565b602082019050919050565b600060208201905081810360008301526131af81613173565b9050919050565b60006131c18261251c565b91506131cc8361251c565b92508282019050808211156131e4576131e3612ba9565b5b92915050565b7f4f70657261746f722069732073656e6465720000000000000000000000000000600082015250565b6000613220601283612475565b915061322b826131ea565b602082019050919050565b6000602082019050818103600083015261324f81613213565b9050919050565b600081905092915050565b6000815461326e8161295c565b6132788186613256565b9450600182166000811461329357600181146132a8576132db565b60ff19831686528115158202860193506132db565b6132b185612cb2565b60005b838110156132d3578154818901526001820191506020810190506132b4565b838801955050505b50505092915050565b60006132ef8261246a565b6132f98185613256565b9350613309818560208601612486565b80840191505092915050565b60006133218285613261565b915061332d82846132e4565b91508190509392505050565b7f4e6f74206f776e65720000000000000000000000000000000000000000000000600082015250565b600061336f600983612475565b915061337a82613339565b602082019050919050565b6000602082019050818103600083015261339e81613362565b9050919050565b7f5472616e7366657220746f207a65726f00000000000000000000000000000000600082015250565b60006133db601083612475565b91506133e6826133a5565b602082019050919050565b6000602082019050818103600083015261340a816133ce565b9050919050565b7f4e6f7420617070726f7665640000000000000000000000000000000000000000600082015250565b6000613447600c83612475565b915061345282613411565b602082019050919050565b600060208201905081810360008301526134768161343a565b9050919050565b600081519050919050565b600082825260208201905092915050565b60006134a48261347d565b6134ae8185613488565b93506134be818560208601612486565b6134c7816124b0565b840191505092915050565b60006080820190506134e760008301876125b1565b6134f460208301866125b1565b6135016040830185612647565b81810360608301526135138184613499565b905095945050505050565b600081905092915050565b60006135348261347d565b61353e818561351e565b935061354e818560208601612486565b80840191505092915050565b60006135668284613529565b915081905092915050565b6000819050602082019050919050565b600061358d82516123af565b80915050919050565b60006135a18261347d565b826135ab84613571565b90506135b681613581565b925060048210156135f6576135f17fffffffff0000000000000000000000000000000000000000000000000000000083600403600802612cd7565b831692505b5050919050565b7f5472616e7366657220746f206e6f6e2045524337323152656365697665720000600082015250565b6000613633601e83612475565b915061363e826135fd565b602082019050919050565b6000602082019050818103600083015261366281613626565b9050919050565b60006136748261251c565b91507fffffffffffffffffffffffffffffffffffffffffffffffffffffffffffffffff82036136a6576136a5612ba9565b5b600182019050919050565b7f4e487b7100000000000000000000000000000000000000000000000000000000600052601260045260246000fd5b60006136eb8261251c565b91506136f68361251c565b925082613706576137056136b1565b5b828204905092915050565b600061371c8261251c565b91506000820361372f5761372e612ba9565b5b600182039050919050565b60006137458261251c565b91506137508361251c565b9250826137605761375f6136b1565b5b828206905092915050565b7f4e487b7100000000000000000000000000000000000000000000000000000000600052603260045260246000fdfea2646970667358221220614889dccfc39eba72ea687931057281535a50ce0605a70db68da55567a5ab7064736f6c63430008140033",
  "linkReferences": {},
  "deployedLinkReferences": {}
}